:020000040800F2
:1000000000000220D54D0008E1070008E3070008C2
:10001000E5070008E7070008E907000800000000FE
:10002000000000000000000000000000213D00086A
:10003000EB07000800000000C13D0008253E000855
:10004000254E0008254E0008254E0008254E0008C4
:10005000254E0008254E0008254E0008254E0008B4
:10006000254E0008254E0008254E0008254E0008A4
:10007000254E0008254E0008254E0008254E000894
:10008000254E0008254E0008254E0008254E000884
:10009000254E0008254E0008254E0008254E000874
:1000A000254E0008254E0008254E0008254E000864
:1000B000254E0008254E0008254E0008254E000854
:1000C000254E0008254E0008254E0008254E000844
:1000D000254E0008254E0008254E0008254E000834
:1000E000254E0008254E0008254E0008254E000824
:1000F000254E0008ED070008254E0008254E000893
:10010000254E0008254E0008254E0008254E000803
:10011000254E0008254E0008254E0008254E0008F3
:10012000254E0008254E0008254E0008254E0008E3
:10013000254E0008254E0008254E0008254E0008D3
:10014000254E0008254E0008254E0008FD07000832
:10015000254E0008254E0008254E0008254E0008B3
:10016000254E0008254E0008254E0008254E0008A3
:10017000254E0008254E0008254E0008000000000E
:08018000254E0008254E000881
:1001900010B5054C237833B9044B13B10448AFF3C1
:1001A00000800123237010BDB40500200000000072
:1001B000F44F000808B5034B1BB103490348AFF3E4
:1001C000008008BD00000000B8050020F44F0008C2
:1001D00053B94AB9002908BF00281CBF4FF0FF31AE
:1001E0004FF0FF3000F074B9ADF1080C6DE904CEAA
:1001F00000F006F8DDF804E0DDE9022304B0704702
:100200002DE9F047089D04468E46002B4DD18A42C9
:10021000944669D9B2FA82F252B101FA02F3C2F1FC
:10022000200120FA01F10CFA02FC41EA030E94408D
:100230004FEA1C48210CBEFBF8F61FFA8CF708FBAE
:1002400016E341EA034306FB07F199420AD91CEB86
:10025000030306F1FF3080F01F81994240F21C81B8
:10026000023E63445B1AA4B2B3FBF8F008FB103300
:1002700044EA034400FB07F7A7420AD91CEB040435
:1002800000F1FF3380F00A81A74240F20781644405
:10029000023840EA0640E41B00261DB1D44000238A
:1002A000C5E900433146BDE8F0878B4209D9002DEE
:1002B00000F0EF800026C5E9000130463146BDE878
:1002C000F087B3FA83F6002E4AD18B4202D38242E2
:1002D00000F2F980841A61EB030301209E46002D91
:1002E000E0D0C5E9004EDDE702B9FFDEB2FA82F2E6
:1002F000002A40F09280A1EB0C014FEA1C471FFA44
:100300008CFE0126200CB1FBF7F307FB131140EA2A
:1003100001410EFB03F0884208D91CEB010103F1F7
:10032000FF3802D2884200F2CB804346091AA4B2B9
:10033000B1FBF7F007FB101144EA01440EFB00FE8D
:10034000A64508D91CEB040400F1FF3102D2A645F2
:1003500000F2BB800846A4EB0E0440EA03409CE791
:10036000C6F12007B34022FA07FC4CEA030C20FA3E
:1003700007F401FA06F31C43F9404FEA1C4900FA5E
:1003800006F3B1FBF9F8200C1FFA8CFE09FB1811DB
:1003900040EA014108FB0EF0884202FA06F20BD94E
:1003A0001CEB010108F1FF3A80F08880884240F29E
:1003B0008580A8F102086144091AA4B2B1FBF9F0E2
:1003C00009FB101144EA014100FB0EFE8E4508D9DD
:1003D0001CEB010100F1FF346CD28E456AD9023862
:1003E000614440EA0840A0FB0294A1EB0E01A14247
:1003F000C846A64656D353D05DB1B3EB080261EBB5
:100400000E0101FA07F722FA06F3F1401F43C5E98E
:10041000007100263146BDE8F087C2F12003D840C4
:100420000CFA02FC21FA03F3914001434FEA1C4706
:100430001FFA8CFEB3FBF7F007FB10360B0C43EAF8
:10044000064300FB0EF69E4204FA02F408D91CEBA8
:10045000030300F1FF382FD29E422DD902386344A6
:100460009B1B89B2B3FBF7F607FB163341EA034146
:1004700006FB0EF38B4208D91CEB010106F1FF3895
:1004800016D28B4214D9023E6144C91A46EA00468C
:1004900038E72E46284605E70646E3E61846F8E61E
:1004A0004B45A9D2B9EB020864EB0C0E0138A3E767
:1004B0004646EAE7204694E74046D1E7D0467BE748
:1004C000023B614432E7304609E76444023842E7C0
:1004D000704700BF034B0360034B0B608023136026
:1004E000704700BFD0070020D005002030B589B08C
:1004F0000024039404940594069407940194134BE8
:100500001A6B42F080021A631A6B02F080020192A9
:10051000019A02941A6B42F001021A631B6B03F0FA
:1005200001030293029B0A4D22460221284600F055
:1005300001FB02230393012304930594069403A96A
:10054000284600F005FA09B030BD00BF003802406F
:100550000000024008B504F0F9F90221034800F058
:10056000EFFA642003F036FBF7E700BF000002401B
:1005700008B50268034B9A4200D008BD00F06AF942
:10058000FBE700BF0020004072B6FEE708B50A484E
:100590000A4B03604FF4E133436000238360C36080
:1005A00003610C2242618361C36101F0EFFD00B978
:1005B00008BDFFF7E9FF00BF280800200010014038
:1005C00000B595B03022002108A804F051FC0023AA
:1005D000039304930593069307930193204A116CA8
:1005E00041F080511164126C02F080520192019A24
:1005F00002931C4B1A6842F480421A601B6803F491
:1006000080430293029B012308934FF480330993A4
:1006100002230E934FF480020F9204221092A8221C
:10062000119212930723139308A801F033F898B995
:100630000F23039302230493002305934FF4A05345
:1006400006934FF480530793052103A801F088FA1D
:1006500020B915B05DF804FBFFF796FFFFF794FF94
:10066000003802400070004000B589B000F0D8F8B2
:10067000FFF7A6FFFFF73AFFFFF788FF0DF1040C25
:10068000084C0FCCACE80F0094E807008CE807009A
:10069000002101A803F069FA034B186003F060FA27
:1006A000FEE700BF0C5000082408002000B583B00E
:1006B000002200920D4B596C41F480415964596CF1
:1006C00001F48041009100990192196C41F0805130
:1006D00019641B6C03F080530193019B0F216FF091
:1006E000010000F0EFF803B05DF804FB00380240B1
:1006F00000B589B0002303930493059306930793F1
:10070000026803F1804303F588339A4202D009B0AE
:100710005DF804FB0021019103F594335A6C42F01B
:1007200010025A645A6C02F010020192019A02916E
:100730001A6B42F001021A631B6B03F00103029370
:10074000029B4FF4C0630393022304930323069395
:100750000723079303A9024800F0FAF8D7E700BF80
:100760000000024010B588B0014600222D2000F0A4
:10077000A9F82D2000F0DEF800240194144B1A6C27
:1007800042F480721A641B6C03F480730193019B22
:1007900002A903A801F0BAFA01F098FA43000D4843
:1007A000A0FB03239B0C013B0B480C4A026040F268
:1007B000E732C26043600461846001F031FC10B133
:1007C000012008B010BD044801F0C0FAF9E700BFED
:1007D0000038024083DE1B436C08002000200040EC
:1007E000FEE7FEE7FEE7FEE7FEE7704708B50248D2
:1007F00001F0F4FA08BD00BF6C08002008B50248FB
:1008000000F06AFB08BD00BFDC5A0020034AD2F8A2
:10081000883043F47003C2F88830704700ED00E080
:1008200008B50B4B1A6842F400721A601A6842F459
:1008300080621A601A6842F480721A60032000F025
:100840002FF80020FFF78EFFFFF730FF002008BDD4
:10085000003C0240034A1168034B1B780B441360B1
:10086000704700BFB408002004000020014B186846
:10087000704700BFB408002038B50446FFF7F6FF04
:100880000546B4F1FF3F02D0044B1B781C44FFF730
:10089000EDFF401BA042FAD338BD00BF040000208A
:1008A000074AD36823F4E0631B041B0C000200F426
:1008B000E060034343F0BF6343F40033D360704709
:1008C00000ED00E000B5194BDB68C3F30223C3F170
:1008D000070CBCF1040F28BF4FF0040C03F1040E09
:1008E000BEF1060F18D9033B4FF0FF3E0EFA0CFC89
:1008F00021EA0C0199400EFA03F322EA030319439B
:1009000000280BDB0901C9B200F1604000F561402D
:1009100080F800135DF804FB0023E5E700F00F000A
:100920000901C9B2024B1954F4E700BF00ED00E021
:1009300014ED00E0002807DB00F01F02400901234E
:100940009340024A42F82030704700BF00E100E0C7
:1009500000230F2B00F2E48070B582B060E0856860
:100960005E000324B44025EA0405CC68B4402C435F
:100970008460456825EA02054C68C4F300129A4079
:100980002A4342605AE0DC08083450F8246003F03F
:10099000070295000F22AA4026EA020E0A69AA4021
:1009A00042EA0E0240F824205CE0072200E0002228
:1009B00002FA0EF22A4302345A4D45F824205A4ACC
:1009C00014686FEA0C0224EA0C054E6816F4803FA6
:1009D00001D04CEA0405544C2560646802EA040521
:1009E0004E6816F4003F01D04CEA04054E4C656099
:1009F000A46802EA04054E6816F4801F01D04CEA90
:100A00000405494CA560E46822404D6815F4001FB8
:100A100001D04CEA0402444CE26001330F2B7DD834
:100A200001229A400C6804EA020C32EA0404F4D170
:100A30004C6804F00304013C012C90D94A6802F090
:100A40000302032A09D0C4685D000322AA4024EAF5
:100A500002048A68AA402243C2604A6802F0030284
:100A6000022A90D004684FEA430E032202FA0EF2E3
:100A700024EA02044A6802F0030202FA0EF2224358
:100A800002604A6812F4403FC7D000220192274A10
:100A9000546C44F480445464526C02F480420192D9
:100AA000019A9C08A51C1F4A52F8255003F0030226
:100AB0004FEA820E0F2202FA0EF225EA02051C4AC4
:100AC00090423FF474AF02F5806290421AD002F572
:100AD0008062904218D002F58062904216D002F5F2
:100AE0008062904214D002F58062904212D002F5EA
:100AF0008062904210D002F5806290423FF455AF80
:100B0000082255E7012253E7022251E703224FE76B
:100B100004224DE705224BE7062249E702B070BDEB
:100B2000704700BF00380140003C014000380240DF
:100B3000000002400AB18161704709048161704779
:100B4000436901EA030221EA030141EA02418161AA
:100B500070472DE9F04383B0D0F80080C1EBC103AA
:100B600000EB83035A6D1B6D9A4254D807460C461E
:100B70009B1AC1EBC10200EB8202526C9A4200D375
:100B80001A4602F103094FEA990915E006F1030933
:100B90004FEA9909C4EBC40507EB8505A96C3B7CBA
:100BA0000093B3B2E2B2404601F068FEAB6C33444E
:100BB000AB646B6D33446B6508EB441303F5106352
:100BC0009B699BB24B4512D3C4EBC40207EB820274
:100BD000516D136D99420AD24BB15B1AC4EBC4023A
:100BE00007EB8202566C9E42D0D31E46CEE7C4EB82
:100BF000C40007EB80073A6D7B6D9A420FD804F072
:100C00000F040123A340D8F8344824EA0304C8F8A9
:100C10003448002000E0012003B0BDE8F08300204C
:100C2000FAE770B58AB0002800F0908005460468A5
:100C300090F8BD333BB3032385F8BD33E36B13F466
:100C4000807F01D100232B61286801F0B3FB2C4683
:100C500054F8106BEC460FCCACE80F000FCCACE8AE
:100C60000F0094E803008CE803002B1D0ECB3046E8
:100C700001F0E2FA044658B1022385F8BD3301249D
:100C800020460AB070BD80F8BC3303F04BFFD2E7BA
:100C90000021286802F00CF8234616E0C3EBC302DB
:100CA00005EB8202012182F83D1082F83C30A2F867
:100CB0004230002182F83F1051649164C3EBC302BB
:100CC00005EB820211650133DBB269688B42E5D323
:100CD00016E0C4EBC40305EB8303002283F8FD2177
:100CE00083F8FC4183F8FF21C3F80422C3F80822EB
:100CF000C4EBC40305EB8303C3F810220134E4B250
:100D0000A142E6D82C4654F8106BEC460FCCACE868
:100D10000F000FCCACE80F0094E803008CE8030050
:100D20002B1D0ECB304601F081FB044620B102237F
:100D300085F8BD330124A3E7002385F8383001236B
:100D400085F8BD33286801F070FF99E7012497E723
:100D5000026890F8BC33012B19D010B5044601236A
:100D600080F8BC33836A012B09D0206801F01CFB9A
:100D7000206801F04CFF002084F8BC0310BD83699B
:100D8000012BF2D0936B43F480339363EDE70220A1
:100D90007047000070B504460D460068066C00EB15
:100DA000411303F530639A682169012911D0344950
:100DB0008E424ED03DB9C5EBC50304EB8303D3F897
:100DC0001032002B56D0E9B2204603F0F5FE002089
:100DD00070BD12F0080F09D02A498E42F7D912F4DB
:100DE000004FF4D04FF400429A60F0E712F0200F69
:100DF00002D020229A60EAE712F0280FE7D12149B9
:100E00008E4206D912F4004F03D04FF400429A608C
:100E1000DDE7C5EBC50204EB8202D2F804121B69C0
:100E2000C3F31203CB1AC2F81432D2F808320B44BF
:100E3000C2F8083215B9D2F8103223B1E9B220460F
:100E400003F0BAFEC3E704F57172012101F072FFED
:100E5000F4E712F4004F03D04FF400429A60B6E773
:100E600012F0200F01D020229A60E9B2204603F050
:100E7000A3FEACE704F57172002101F05BFFA2E76D
:100E80000A31544F0A30544F38B5044603681D6C7C
:100E900003EB4113D3F8081B0E4A954207D903F51B
:100EA000306311F4004F02D04FF400429A602046A4
:100EB00003F07AFE074B9D4202D92369012B01D032
:100EC000002038BD04F571720121206801F032FF65
:100ED000F6E700BF0A30544F2DE9F84F0446056885
:100EE000284601F0E1FE08B1BDE8F88F064620680B
:100EF00001F0A9FE0028F7D0206801F0A4FE10F050
:100F0000020F04D02268536903F002035361206882
:100F100001F099FE10F0100F13D02268936923F0AE
:100F2000100393612F6A07F00F08C7F34343022BA6
:100F300068D0062B00F084802268936943F0100388
:100F40009361206801F07FFE10F4002F40F08A804A
:100F5000206801F078FE10F4802F40F0CC802068EB
:100F600001F071FE0028C0F23681206801F06BFEAE
:100F700010F4006F0AD0D5F8083813F0010F40F0D4
:100F800044812268536903F400635361206801F0CF
:100F90005AFE10F4805F40F03C81206801F053FE5F
:100FA00010F4005F40F09181206801F04CFE10F0D9
:100FB000080F40F0A281206801F045FE10F4801F68
:100FC00040F0A481206801F03EFE10F4001F40F0C4
:100FD000A781206801F037FE10F0804F40F0AA8111
:100FE000206801F030FE10F0040F3FF47DAF23685D
:100FF0005D6815F0040F40F0A681226853682B430A
:10100000536071E747F6F0731F4295D04FEA171B04
:10101000C8EBC80904EB8909C7F30A12D9F808120A
:10102000284601F05FFDCBF30A02D9F808321344D9
:10103000C9F80832D9F814321A44C9F814227BE7E7
:10104000082204F57171284601F04CFDC7F30A1718
:10105000C8EBC80204EB8202D2F814321F44C2F873
:10106000147269E7206801F0F2FD0746B04616E009
:1010700005EB48130122C3F8082B41462046FFF731
:1010800089FE1BE005EB48130822C3F8082B4146F4
:101090002046FFF7F9FE14E008F101087F08002F51
:1010A0003FF456AF17F0010FF6D05FFA88F12068D1
:1010B00001F0DDFD814610F0010FD9D119F0080FC4
:1010C000E0D119F0100F04D005EB48131022C3F83B
:1010D000082B19F0200F04D005EB48132022C3F889
:1010E000082B19F4005FD7D005EB48134FF40052DA
:1010F000C3F8082BD0E7206801F0B1FD0746B046E1
:1011000029E05146204603F063FD19F0080F04D092
:1011100005EB48130822C3F8082919F0100F04D072
:1011200005EB48131022C3F8082919F0400F04D02A
:1011300005EB48134022C3F8082919F0020F04D028
:1011400005EB48130222C3F8082919F0800F3DD19E
:1011500008F101087F08002F3FF401AF17F0010FDD
:10116000F6D05FFA88FA5146206801F089FD814681
:1011700010F0010FC9D008F00F03012101FA03F2AA
:10118000D5F8343823EA0203C5F8343805EB4813A0
:10119000C3F8081923698B42B3D1C8EBC80304EB29
:1011A0008303596C9A6C0A449A64B8F1000FA8D171
:1011B000C8EBC80304EB83031B6D002BA1D104F51E
:1011C00071720121206801F0B5FD9AE74146204681
:1011D000FFF7BFFCBCE7D5F8043823F00103C5F8DE
:1011E000043894F8F433012B08D0204603F030FD86
:1011F0002268536903F000435361B6E6002184F886
:10120000F413204600F045FAF2E7204603F008FD0B
:10121000B7E605F500677B6823F001037B601021CA
:10122000206801F0CDF820E005EB46134FF67F3142
:10123000C3F80819D3F8002922F40012C3F80029D2
:10124000D3F8002942F00062C3F80029C3F8081B54
:10125000D3F8002B22F40012C3F8002BD3F8002B94
:1012600042F00062C3F8002B01366368B342DBD85A
:10127000FB6943F00113FB61236BDBB1D7F88430CA
:1012800043F00B03C7F884307B6C43F00B037B64A3
:10129000D5F8003823F4FE63C5F8003804F5717200
:1012A000217C206801F046FD2268536903F48053D5
:1012B000536172E67B6943F4005343F02B037B6177
:1012C0003B6943F00B033B61E2E7206801F021FD3D
:1012D000206801F073F9E060256800F0F1FC014638
:1012E000227B284600F0EEFF204603F082FC2268B5
:1012F000536903F40053536156E6204603F073FC30
:101300002268536903F00803536154E60021204624
:1013100003F0AAFC2268536903F48013536151E679
:101320000021204603F09AFC2268536903F400135D
:1013300053614EE6204603F09DFC2268536903F09A
:10134000804353614CE6204603F09AFC55E690F842
:10135000BC33012B0DD010B50446012380F8BC33FB
:1013600080F83810006801F042FC002084F8BC03CB
:1013700010BD0220704738B505468C4611F0800F2D
:1013800029D101F00F0ECEEBCE04A40004F5FC74BD
:101390000444211DCEEBCE0E00EB8E0E00208EF805
:1013A000FD010CF00F0C81F800C08A60CB704A7808
:1013B0000AB1A1F806C0022B1DD095F8BC33012B51
:1013C0001CD0012385F8BC33286801F008F90020FF
:1013D00085F8BC0338BD01F00F00C0EBC0018900E7
:1013E000383129440431C0EBC00005EB80000124F2
:1013F00080F83D40D5E700230B71DEE70220E9E7E6
:1014000010B504460A4611F0800F20D101F00F00FC
:10141000C0EBC0039B0003F5FC732344191DC0EB14
:10142000C00004EB8000002380F8FD3102F00F02C1
:101430000A7094F8BC33012B19D0012384F8BC3313
:10144000206801F01BF9002084F8BC0310BD01F0F6
:101450000F00C0EBC0039B0038332344191DC0EBC1
:10146000C00004EB8000012380F83D30DEE702205D
:10147000ECE710B501F00F04C4EBC401890001F5DD
:10148000FC7101440431C4EBC40C00EB8C0CCCF8AF
:101490000822CCF810320023CCF814328CF8FD313D
:1014A0008CF8FC410369012B06D064B9DAB20068FC
:1014B00001F054F9002010BDC4EBC40C00EB8C0CFF
:1014C000CCF80C22F1E7DAB2006801F0EFF9F1E7AD
:1014D00001F00F01C1EBC10100EB8101D1F8140251
:1014E000704710B501F00F04C4EBC4018900383116
:1014F00001440431C4EBC40C00EB8C0CCCF8482044
:10150000CCF850300023CCF8543001238CF83D3017
:101510008CF83C400369012B06D064B9DAB200684C
:1015200001F01CF9002010BDC4EBC40C00EB8C0CC6
:10153000CCF84C20F1E7DAB2006801F0B7F9F1E736
:1015400038B501F00F054268954239D804460B467C
:1015500011F0800F1FD1C1EBC101890001F5FC71B1
:1015600001440431C3EBC30300EB8303002283F87F
:10157000FD2101238B700D7094F8BC33012B21D019
:10158000012384F8BC33206801F0D6FA8DB1002025
:1015900084F8BC0338BDC5EBC5018900383101446E
:1015A0000431C5EBC50300EB8303012283F83D2022
:1015B000DFE704F57172217C206801F0BBFBE6E7F0
:1015C0000120E7E70220E5E701F00F0342689342BC
:1015D00031D810B5044611F0800F1ED1C3EBC30102
:1015E000890001F5FC7101440431C3EBC30200EB37
:1015F0008202002082F8FD0100228A700B7094F8AC
:10160000BC33012B19D0012384F8BC33206801F0CE
:10161000C0FA002084F8BC0310BDC3EBC3018900ED
:10162000383101440431C3EBC30200EB82020120D4
:1016300082F83D00E0E7012070470220ECE710B49B
:101640000468606A31B940EA0240A06200205DF897
:10165000044B70478C46A36A00EB1340002308E05C
:1016600003F1400104EB8101496800EB11400133B3
:10167000DBB20CF1FF318B42F2D340EA02400CF1B5
:101680003F0104EB81014860E0E7036859620020F4
:1016900070477047002800F0E08170B582B00446C2
:1016A000036813F0010F3BD09F4B9B6803F00C03C2
:1016B000042B2CD09C4B9B6803F00C03082B21D0EF
:1016C0006368B3F5803F4FD0B3F5A02F52D0964B4F
:1016D0001A6822F480321A601A6822F480221A6092
:1016E0006368002B50D0FFF7C1F805468E4B1B688E
:1016F00013F4003F14D1FFF7B9F8401B6428F5D963
:101700000320B1E1884B5B6813F4800FD8D0864B7F
:101710001B6813F4003F03D06368002B00F09F8127
:10172000236813F0020F54D07F4B9B6813F00C0F0B
:101730003ED07D4B9B6803F00C03082B33D0E3684D
:10174000002B68D0794B01221A60FFF78FF805460D
:10175000754B1B6813F0020F54D1FFF787F8401B3D
:101760000228F5D903207FE16F4A136843F48033E0
:101770001360B5E76C4B1A6842F480221A601A684D
:1017800042F480321A60ABE7FFF770F80546664B0B
:101790001B6813F4003FC3D0FFF768F8401B6428B0
:1017A000F5D9032060E1604B5B6813F4800FC6D16C
:1017B0005D4B1B6813F0020F03D0E368012B40F070
:1017C0005081594A136823F0F803216943EAC103A1
:1017D0001360236813F0080F42D063696BB3534B57
:1017E0000122C3F8802EFFF741F805464E4B5B6F90
:1017F00013F0020F34D1FFF739F8401B0228F5D956
:10180000032031E1484A136823F0F803216943EAD1
:10181000C1031360DDE7454B00221A60FFF726F88D
:101820000546414B1B6813F0020FD2D0FFF71EF89C
:10183000401B0228F5D9032016E13C4B0022C3F8D7
:10184000802EFFF713F80546374B5B6F13F0020F3E
:1018500006D0FFF70BF8401B0228F5D9032003E15F
:10186000236813F0040F77D02F4B1B6C13F0805FAD
:1018700033D1002301932C4B1A6C42F080521A642E
:101880001B6C03F080530193019B0125284B1B68BF
:1018900013F4807F23D0A368012B34D0052B38D0DC
:1018A000214B1A6F22F001021A671A6F22F004020C
:1018B0001A67A368002B3DD0FEF7D8FF06461A4BE7
:1018C0001B6F13F0020F46D1FEF7D0FF801B41F2D1
:1018D00088339842F3D90320C6E00025D6E7144A9E
:1018E000136843F480731360FEF7C0FF0646104B85
:1018F0001B6813F4807FCED1FEF7B8FF801B02284F
:10190000F5D90320B0E0084A136F43F001031367D1
:10191000CFE7054B1A6F42F004021A671A6F42F0C4
:1019200001021A67C5E700BF0038024000004742C5
:1019300000700040FEF79AFF0646524B1B6F13F0F3
:10194000020F08D0FEF792FF801B41F288339842C5
:10195000F3D9032088E0EDB9A369002B00F0838060
:10196000484A926802F00C02082A51D0022B17D084
:10197000454B00221A66FEF779FF0446414B1B686F
:1019800013F0007F42D0FEF771FF001B0228F5D94B
:10199000032069E03B4A136C23F080531364DBE7B8
:1019A000394B00221A66FEF761FF0546354B1B686E
:1019B00013F0007F06D0FEF759FF401B0228F5D92F
:1019C000032051E0E369226A1343626A43EA821307
:1019D000A26A5208013A43EA0243E26A43EA026316
:1019E000284A5360284B01221A66FEF73FFF04463F
:1019F000244B1B6813F0007F06D1FEF737FF001B56
:101A00000228F5D903202FE000202DE000202BE054
:101A1000012B2BD01B4B5B6803F48001E2699142E0
:101A200026D103F03F02216A8A4223D1616A47F638
:101A3000C0721A40B2EB811F1ED103F44031A26A7A
:101A40005208013AB1EB024F18D103F07063E26A19
:101A5000B3EB026F14D1002006E001207047012093
:101A600002E0012000E0002002B070BD0120FBE791
:101A70000120F9E70120F7E70120F5E70120F3E76E
:101A80000120F1E7003802400000474208B5314B21
:101A90009B6803F00C03042B57D0082B57D12D4B18
:101AA0005A6802F03F025B6813F4800F2AD0294B7A
:101AB0005968C1F3881C4FEA4C11B1EB0C006EEB76
:101AC0000E0E4FEA8E1343EA90638101091A63EB0D
:101AD0000E03DB0043EA5173C90011EB0C0C43F118
:101AE0000003590200234FEA4C2041EADC51FEF783
:101AF0006FFB184B5B68C3F3014301335B00B0FB22
:101B0000F3F025E0134B5968C1F3881C4FEA4C11E0
:101B1000B1EB0C006EEB0E0E4FEA8E1343EA9063AE
:101B20008101091A63EB0E03DB0043EA5173C9001C
:101B300011EB0C0C43F10003990200234FEA8C20B7
:101B400041EA9C51FEF744FBD3E7034800E0034819
:101B500008BD00BF0038024000127A000024F400E3
:101B6000002800F09B8070B50D4604464F4B1B6863
:101B700003F007038B4208D2CBB24C4A13701368B0
:101B800003F007038B4240F08B80236813F0020FB1
:101B900017D013F0040F04D0454A936843F4E05380
:101BA0009360236813F0080F04D0414A936843F40C
:101BB000604393603E4A936823F0F003A1680B43AF
:101BC0009360236813F0010F32D06368012B21D09A
:101BD0009A1E012A25D9364A126812F0020F61D0E6
:101BE00033498A6822F0030213438B60FEF73EFEFE
:101BF00006462F4B9B6803F00C036268B3EB820F21
:101C000016D0FEF733FE801B41F288339842F0D99C
:101C1000032042E0264A126812F4003FE0D101207E
:101C20003BE0234A126812F0007FD9D1012034E052
:101C30001E4B1B6803F00703AB4207D9EAB21B4BEC
:101C40001A701B6803F00703AB422DD1236813F011
:101C5000040F06D0164A936823F4E053E1680B435F
:101C60009360236813F0080F07D0114A936823F498
:101C70006043216943EAC1039360FFF707FF0C4B00
:101C80009B68C3F303130B4AD35CD8400A4B18601C
:101C90000A4B1868FEF766FD002070BD01207047F2
:101CA0000120FAE70120F8E70120F6E7003C0240B6
:101CB00000380240345000080000002008000020D6
:101CC000014B1868704700BF0000002008B5FFF7FF
:101CD000F7FF044B9B68C3F38223034AD35CD840CD
:101CE00008BD00BF003802404450000808B5FFF7A7
:101CF000E7FF044B9B68C3F34233034AD35CD840ED
:101D000008BD00BF00380240445000080F230360A4
:101D10000B4B9A6802F0030242609A6802F0F002EC
:101D200082609A6802F4E052C2609B68DB0803F4A8
:101D3000E0530361034B1B6803F007030B6070471C
:101D400000380240003C02407047000090F83D30EF
:101D5000DBB2012B37D1022380F83D300268D36813
:101D600043F00103D3600368194A934220D0B3F1D2
:101D7000804F1DD0A2F57C42934219D002F58062BB
:101D8000934215D002F58062934211D002F5784259
:101D900093420DD002F57052934209D0A2F59432CD
:101DA000934205D01A6842F001021A600020704781
:101DB0009A6802F00702062A07D01A6842F0010268
:101DC0001A6000207047012070470020704700BF54
:101DD00000000140704770477047704710B50446D7
:101DE00003681A6912F0020F11D0DA6812F0020FBC
:101DF0000DD06FF002021A610123037703689B691B
:101E000013F0030F70D0FFF7E6FF0023237723685A
:101E10001A6912F0040F12D0DA6812F0040F0ED013
:101E20006FF004021A610223237723689B6913F47D
:101E3000407F5FD02046FFF7CEFF00232377236843
:101E40001A6912F0080F12D0DA6812F0080F0ED0DB
:101E50006FF008021A61042323772368DB6913F00B
:101E6000030F4ED02046FFF7B6FF002323772368E9
:101E70001A6912F0100F12D0DA6812F0100F0ED09B
:101E80006FF010021A61082323772368DB6913F4CB
:101E9000407F3DD02046FFF79EFF00232377236835
:101EA0001A6912F0010F03D0DA6812F0010F36D16F
:101EB00023681A6912F0800F03D0DA6812F0800FDD
:101EC00034D123681A6912F0400F03D0DA6812F097
:101ED000400F32D123681A6912F0200F03D0DA685C
:101EE00012F0200F30D110BDFFF774FF2046FFF72E
:101EF00073FF8AE72046FFF76DFF2046FFF76CFF70
:101F00009BE72046FFF766FF2046FFF765FFACE73B
:101F10002046FFF75FFF2046FFF75EFFBDE76FF04B
:101F200001021A612046FEF723FBC1E76FF0800231
:101F30001A61204600F0A1F8C3E76FF040021A6171
:101F40002046FFF74AFFC5E76FF020021A612046DE
:101F500000F092F8C7E700000368304A904212D0C0
:101F6000B0F1804F0FD0A2F57C4290420BD002F529
:101F70008062904207D002F58062904203D002F561
:101F80007842904203D123F070034A681343234AF6
:101F900090422AD0B0F1804F27D0A2F57C429042E7
:101FA00023D002F5806290421FD002F580629042F9
:101FB0001BD002F57842904217D002F57052904241
:101FC00013D002F5806290420FD002F580629042F9
:101FD0000BD0A2F59832904207D002F58062904271
:101FE00003D002F58062904203D123F44073CA68A3
:101FF000134323F080034A69134303608B68C36271
:102000000B688362054B984203D003F580639842C6
:1020100001D10B6903630123436170470000014054
:1020200040B310B5044690F83D30F3B1022384F874
:102030003D30214651F8040BFFF78EFF012384F851
:10204000463084F83E3084F83F3084F8403084F8DD
:10205000413084F8423084F8433084F8443084F8C6
:10206000453084F83D30002010BD80F83C30FFF74B
:102070006BFEDBE7012070477047704738B50446B8
:102080000268136923F44053C1680B4313618368EA
:102090000269134342691343C2691A430168CB685A
:1020A00023F4164323F00C031343CB6002685369F7
:1020B00023F4407381690B4353610368314A9342AF
:1020C00006D002F58062934202D0FFF7FFFD01E0E7
:1020D000FFF70CFEE369B3F5004F29D00021031888
:1020E00049411B1841F10001C90041EA5371DB006D
:1020F000181863684FEA83024FEA937341F10001B5
:10210000FEF766F8204DA5FB00325109642303FB5E
:1021100011031B013233A5FB03235B0903F0F0021B
:1021200002EB011203F00F03216813448B6038BDEA
:102130000023021843EB0301121841F10001C9000A
:1021400041EA5271D200101841F100016268921800
:102150005B41FEF73DF80C4DA5FB003251096423AD
:1021600003FB1103DB003233A5FB03235B095A0099
:1021700002F4F87202EB011203F007032168134422
:102180008B60D4E7001001401F85EB5158B310B5A8
:10219000044690F83D300BB3242384F83D30226888
:1021A000D36823F40053D3602046FFF767FF22680B
:1021B000136923F4904313612268536923F02A03BF
:1021C00053612268D36843F40053D3600020206435
:1021D000202384F83D3084F83E3010BD80F83C3038
:1021E000FEF786FAD8E701207047000082B000238E
:1021F0000193019B013301930E4A934214D8036962
:10220000002BF6DA00230193036943F00103036115
:10221000019B01330193074A934208D8036913F0E5
:10222000010FF5D1002000E0032002B07047032029
:10223000FBE700BF400D030084B010B5044603A8BF
:1022400080E80E00089B012B1FD1A36B23F4803381
:10225000A363E36823F4840323F04003E360E368AB
:1022600023F44013E3600F9B012B09D02046FFF7B6
:10227000BDFF069B012B1BD0BDE8104004B070478A
:10228000E36843F48013E360F0E7E36843F040035E
:10229000E3602046FFF7AAFF0C9B23B9A36B43F42E
:1022A0008033A363E5E7A36B23F48033A363E0E704
:1022B000A36843F00603A360A36843F02003A36070
:1022C000DAE70000022A0AD00921C26822F470521B
:1022D000C260C36843EA8123C36000207047234B78
:1022E0000B44234A93422FD9224B0B44224A934258
:1022F0002CD9A1F57403A3F51053204A934227D992
:10230000A1F18373A3F5E7431D4A934222D31D4BEA
:102310000B441D4A93421FD91C4B0B441C4A934249
:102320001CD31C4B0B441C4A934219D3A1F1B77325
:10233000A3F55853194A934214D3194B0B44194A25
:10234000934211D20721C0E70F21BEE70E21BCE75F
:102350000D21BAE70C21B8E70B21B6E70A21B4E753
:102360000921B2E70821B0E70621AEE7405327FF75
:10237000FF340C00401E1BFF3F420F007F4F120036
:1023800020D6130060B6E5FE5FE3160000D3CEFE54
:1023900040771B00C05BB3FEC09121002075380060
:1023A000E05459FEE09C4100836843F001038360E0
:1023B00000207047836823F001038360002070478A
:1023C00082B000230193890141F020010161019B4A
:1023D00001330193054A934205D8036913F0200F96
:1023E000F5D1002000E0032002B07047400D03004B
:1023F00082B00023019310230361019B01330193F9
:10240000054A934205D8036913F0100FF5D1002057
:1024100000E0032002B07047400D0300D0F8003800
:102420001943C0F8001800207047000084B02DE95F
:10243000F041044607A880E80E00002306E003F1FF
:10244000400204EB82020021516001330E2BF6D9C9
:10245000119F27BBD4F8043843F00203C4F80438B2
:10246000A36B43F40013A363A36B23F40023A363C0
:10247000A36B23F48023A3630023C4F8003E04F578
:102480000065D4F80038C4F800380C9B012B14D137
:10249000099B6BB900212046FFF7C0FF11E0A36B39
:1024A00023F40013A363A36B43F40023A363E3E7C4
:1024B00001212046FFF7B2FF03E003212046FFF78A
:1024C000ADFF10212046FFF77BFF804608B14FF09B
:1024D00001082046FFF78CFF08B14FF001080023E8
:1024E0002B616B61EB610AE0C3B94FF00060C2F889
:1024F000000900220A614FF67F328A600133079992
:10250000994210D904EB431202F51061D2F8000988
:102510000028E9DB0020C2F80009EAE74FF090400C
:10252000C2F80009E5E700230AE0C3B14FF0904C80
:10253000C2F800CB002202614FF67F328260013385
:10254000994211D904EB431202F53060D2F8006BC6
:10255000002EEADB4FF0000CC2F800CBEAE74FF0A8
:10256000006CC2F800CBE5E72B6923F480732B6184
:102570000023A3616FF0804363610A9B1BB9A369C9
:1025800043F01003A361A2690B4B1343A3610D9B9E
:102590001BB1A36943F00803A361012F04D0404697
:1025A000BDE8F04104B07047A36943F0804343F0B5
:1025B0000403A361F3E700BF00383C80D0F808387B
:1025C00013F0060307D0022B07D0062B01D00F20F3
:1025D000704702207047002070470220704710B5F6
:1025E00091F800C04B78012B23D000F5006ED0F895
:1025F0001C380CF00F040122A24043EA0243C0F849
:102600001C3800EB4C10D0F8003B13F4004F0ED1F7
:10261000D0F8003B8A68C2F30A02C97842EA8142D4
:10262000134343F0805343F40043C0F8003B0020C1
:1026300010BDD0F81C280CF00F0E03FA0EF39BB25D
:102640001343C0F81C3800EB4C10D0F8003913F4D9
:10265000004FECD1D0F800398A68C2F30A02C97879
:1026600042EA814242EA8C5C43EA0C0343F0805325
:1026700043F40043C0F80039D9E7000030B40B78C8
:102680004A78012A26D000EB4313D3F8002B002A06
:1026900052DBD0F83C480A7802F00F024FF0010CF0
:1026A0000CFA02F224EA0242C0F83C28D0F81C28B6
:1026B000097801F00F010CFA01FC22EA0C42C0F883
:1026C0001C28D3F8001B234A0A40C3F8002B002023
:1026D00030BC704700EB4313D3F80029002A1EDBFF
:1026E000D0F83C580A7802F00F02012404FA02F2F2
:1026F00092B225EA0202C0F83C28D0F81C280978DA
:1027000001F00F018C40A4B222EA0404C0F81C4876
:10271000D3F80019104A0A40C3F80029D7E7D3F8C4
:10272000002942F00062C3F80029D3F8002942F0E2
:102730008042C3F80029D3E7D3F8002B42F00062AF
:10274000C3F8002BD3F8002B42F08042C3F8002BD3
:102750009FE700BF0078F3EF007833EC70B40B789C
:102760004C78012C27D000EB431000F530631C6936
:10277000E40CE4041C611C6924F0FF5424F4C0142C
:102780001C614C690CB18C684C611C6944F40024D8
:102790001C611C698D68C5F3120C44EA0C041C61B1
:1027A000012A66D0D0F8003B43F00443C0F8003B58
:1027B000002070BC70474C696CBB00EB4314D4F82C
:1027C000105925F0FF5525F4C015C4F81059D4F858
:1027D000105945F40025C4F81059D4F81059ED0CDF
:1027E000ED04C4F81059012A34D000EB4313D3F898
:1027F000002942F00442C3F800294B69002BD7D0CE
:10280000D0F834380A7802F00F0101228A401343CD
:10281000C0F83438CCE700EB431404F510642569A4
:10282000ED0CED042561256925F0FF5525F4C01553
:1028300025618D684E69AE4200D94D61256945F428
:102840000025256125694E69C6F3120C45EA0C0581
:102850002561C8E70A691AB100EB4311C1F81429D0
:1028600000EB4310D0F8002942F00442C0F80029E0
:102870009EE7CA68002A95D05A6193E710B59DF883
:10288000084084B903334FEA930E4FF0000C08E080
:1028900000EB023303F5805351F8044B1C600CF13C
:1028A000010CF445F4D3002010BD0000F0B583B056
:1028B0000B784C78012C33D000EB431303F5306CCC
:1028C000DCF81040E40CE404CCF81040DCF81040D4
:1028D00024F0FF5424F4C014CCF810404C69002CB0
:1028E00040F0CA80DCF810408D68C5F312052C4317
:1028F000CCF81040DCF8104044F40024CCF8104030
:10290000012A00F0D380CA78012A00F0D680D3F8DB
:10291000002B42F00442C3F8002B002003B0F0BDAE
:102920004C6984BB00EB4314D4F8105925F0FF55D3
:1029300025F4C015C4F81059D4F8105945F40025F1
:10294000C4F81059D4F81059ED0CED04C4F810591E
:10295000012A4FD000EB4313D3F8004944F004445C
:10296000C3F80049CC78012C6DD04B69002BD4D032
:10297000D0F834380A7802F00F0101228A4013435C
:10298000C0F83438C9E700EB4314D4F81059ED0C03
:10299000ED04C4F81059D4F8105925F0FF5525F46A
:1029A000C015C4F81059D4F810598E684F6907EB58
:1029B000060C0CF1FF3CBCFBF6FC494E06EACC4C85
:1029C00045EA0C05C4F81059D4F810594E69C6F3FD
:1029D00012063543C4F8105904F51064CD78012D62
:1029E000B6D1256925F0C0452561256945F000551A
:1029F0002561ADE70A691AB100EB4314C4F8142944
:102A0000CA78012A08D000EB4313D3F8002942F01A
:102A10000442C3F8002980E7D0F8082812F4807F28
:102A200008D100EB4311D1F8002942F00052C1F85F
:102A30000029E8E700EB4311D1F8002942F0805269
:102A4000C1F80029DFE7D0F8084814F4807F0CD1E2
:102A5000D3F8004944F00054C3F8004900928B8A2F
:102A60000A78C968FFF70AFF57E7D3F8004944F02E
:102A70008054C3F80049F1E78D682C44013CB4FB55
:102A8000F5F4DCF810501FFA84FE154E06EAC44433
:102A90002543CCF81050DCF810508C680EFB04F481
:102AA000C4F312042C43CCF8104029E7CA68002A6A
:102AB0003FF429AFCCF8142025E7D0F8082812F409
:102AC000807F06D1D3F8002B42F00052C3F8002BD0
:102AD0001DE7D3F8002B42F08052C3F8002B16E715
:102AE0000000F81F00B583B0844608464FEA920EF6
:102AF00002F00302002305E00CF58051096840F85C
:102B0000041B01337345F7D39AB10CF5805CDCF8F4
:102B1000003001934FF0000C5FFA8CF3D900019B59
:102B2000CB4000F8013B0CF1010C013A92B2002AB3
:102B3000F2D103B05DF804FB0B784A78012A14D077
:102B400000EB4310D0F8002B002A06DB2BB1D0F8A5
:102B5000003B23F08043C0F8003BD0F8003B43F437
:102B60000013C0F8003B0020704700EB4310D0F882
:102B70000029002A06DB2BB1D0F8003923F080436E
:102B8000C0F80039D0F8003943F40013C0F8003918
:102B9000E9E70B784A78012A0ED000EB4310D0F811
:102BA000003B23F40013C0F8003BCB78023BDBB2C0
:102BB000012B15D90020704700EB4310D0F80039E5
:102BC00023F40013C0F80039CB78023BDBB2012BB1
:102BD000F0D8D0F8003943F08053C0F80039E9E765
:102BE000D0F8003B43F08053C0F8003BE2E7D0F858
:102BF000003823F4FE63C0F80038D0F8003809012B
:102C000001F4FE611943C0F8001800207047D0F8A5
:102C1000003E23F00303C0F8003ED0F8043823F050
:102C20000203C0F8043800207047D0F8003E23F0BB
:102C30000303C0F8003ED0F8043843F00203C0F8A4
:102C40000438002070474269806910407047D0F80E
:102C5000183800F50060C0691840000C7047D0F8C3
:102C6000183800F50060C069184080B2704700EB6A
:102C70004111D1F8082B00F5006040691040704701
:102C800010B4D0F81048D0F8343801F00F02D34017
:102C9000DB01DBB2234300EB411000F510608068DC
:102CA00018405DF8044B7047406900F00100704720
:102CB00038B50546C36823F0C043C360012913D06B
:102CC00019BBC36843F08043C36000240120FDF7B3
:102CD000D3FD01342846FFF7E7FF08B1312CF5D9C1
:102CE000322C14D0002038BDC36843F00053C360B9
:102CF00000240120FDF7C0FD01342846FFF7D4FF72
:102D00000128EDD0312CF4D9EAE70120EBE70120CE
:102D1000E9E7D0F8003923F4FF6323F00703C0F894
:102D20000039D0F8043843F48073C0F80438002028
:102D30007047000010B4046C154B9C4203D9D0F8C6
:102D4000003B002B16DB0024C0F8104BD0F8104BD2
:102D500044F40024C0F8104BD0F8104B44F0180491
:102D6000C0F8104BD0F8104B44F0C044C0F8104BE2
:102D7000012903D000205DF8044B7047C0F8142BE4
:102D8000D0F8003B43F08023C0F8003BF2E700BFDF
:102D90000A30544F10B5D0F8BC4284B1D0F8C032DC
:102DA0007BB194F80002FF280DD09B6894F80122B3
:102DB00021469847FF2384F80032002010BD0320ED
:102DC000FCE70020FAE70020F8E700004323038037
:102DD00000487047440000204323038000487047A8
:102DE000880000204323038000487047D80000205B
:102DF0000A23038000487047CC00002038B5D0F883
:102E0000BC5275B1044601F08CFFC5F80C02D4F831
:102E1000C032DB6805F50371D5F80402984700203D
:102E200038BD0320FCE710B5D0F8C442D0F8BC325E
:102E300053B301EB810200EB820292694AB1C1EB0C
:102E4000C10C04EB8C04646CB2FBF4FC04FB1C228C
:102E500072B10022C3F81422D0F8C0221469ACB1B8
:102E60000A4603F50471D3F80802A047002010BDFC
:102E700001EB810300EB830300249C61234622467F
:102E800001F098FF2046F2E70320F0E70020EEE78C
:102E9000F0B583B0D0F8BC6200238DF80730ADF8F0
:102EA0000430002E6CD007460C460B7813F06005FA
:102EB0002AD0202D5ED1CA88F2B113F0800F0FD036
:102EC000D0F8C0329B68314660789847E288072A7C
:102ED00028BF07223146384600F0FAFD00254CE0B5
:102EE0004B7886F800328B7986F80132CA883146F1
:102EF00000F003FE002540E0D0F8C0329B680022BD
:102F000048789847002538E04E780B2E2ED8DFE819
:102F100006F006342D2D2D2D2D2D2D2D152490F858
:102F20009C32DBB2032B03D000F0A8FA032524E087
:102F3000022201A900F0CCFD35461EE090F89C323B
:102F4000DBB2032B03D000F099FA032515E0012230
:102F50000DF1070100F0BCFD0FE090F89C32DBB2F0
:102F6000032B0AD000F08AFA032506E000F086FA67
:102F7000032502E000F082FA0325284603B0F0BDE5
:102F80000325FAE738B50446812101F0F3FE002558
:102F900025870121204601F0EDFEA4F87851822119
:102FA000204601F0E7FEA4F84C50A4F84E50D4F8A7
:102FB000BC324BB1D4F8C0325B689847D4F8BC023D
:102FC00001F0BAFEC4F8BC52002038BD70B504460A
:102FD0004FF4077001F0ACFEB8B30646C4F8BC026B
:102FE000237CBBBB4FF4007302228121204601F0F9
:102FF000B6FE012525874FF400730222294620469C
:1030000001F0ADFEA4F878511023A4F84E30082347
:1030100003228221204601F0A2FE0123A4F84C30B5
:10302000D4F8C0321B6898470023C6F81432C6F89B
:103030001832257C15BB4FF40073D6F80422012109
:10304000204601F0BFFE284670BD0023C4F8BC3204
:103050000225F8E7402302228121204601F07FFE6D
:1030600001252587402302222946204601F077FECC
:10307000A4F878511023A4F84E30C8E74023D6F8BE
:1030800004220121204601F09DFE0025DBE719B155
:10309000C0F8C0120020704703207047D0F8BC323F
:1030A0002BB1C3F80812C3F8102200207047032088
:1030B0007047D0F8BC321BB1C3F80412002070472F
:1030C0000320704710B5D0F8BC2292B1047C44B9FB
:1030D0004FF40073D2F80422012101F073FE204660
:1030E00010BD4023D2F80422012101F06BFE002420
:1030F000F5E70324F3E798B108B503460020C3F8C9
:10310000B802C3F8C002C3F8CC0209B1C3F8B412C4
:10311000012183F89C121A70184601F0B7FD08BD12
:103120000320704710B582B00023ADF8063061B1BE
:103130000446C0F8B812CB6A4BB10DF106009847AF
:10314000C4F8CC02002002B010BD0320FBE7002031
:10315000F9E708B501F0FBFD08BD08B5D0F8B832B5
:1031600013B11B68984708BD0320FCE708B5D0F8E9
:10317000B8320BB15B689847002008BD38B50446EB
:1031800000F2AA25284600F065F90123C4F894321C
:10319000B4F8B032C4F8983294F8AA1201F01F03C0
:1031A000012B0DD0022B10D02BB101F08001204655
:1031B00001F0E8FD03E02946204600F00AFB38BD97
:1031C0002946204600F03DFBF9E72946204600F05D
:1031D0006CFBF4E738B504460D4641BB1346D0F806
:1031E0009422032A01D0084638BDD0F85C11D0F8EB
:1031F0006021914209D890F89C32DBB2032B0FD0AA
:10320000204600F091FC2846EEE7891AC0F85C11D0
:103210008A4228BF0A46194600F07EFC2846E3E7AA
:10322000D0F8B8321B69002BEAD09847E8E790F84D
:103230009C32DBB2032B01D00020D5E7D0F8B832A6
:103240009B690BB19847CFE70020CDE738B504461E
:103250000D4600294AD11346D0F89422022A05D0FF
:1032600094F8A032012B3CD0284638BDC269016ACF
:103270008A420ED88A4218D094F89C32DBB2032BD3
:1032800027D08021204601F07DFD204600F057FC2C
:10329000E6E7521AC261194600F027FC00231A46DD
:1032A0001946204601F08EFDDAE783699942E3D89A
:1032B000D0F898229342DFD20022114600F015FC8C
:1032C0000021C4F898120B460A46204601F07AFD08
:1032D000C6E7D4F8B832DB68002BD2D02046984736
:1032E000CFE7002384F8A0322846BEE790F89C324E
:1032F000DBB2032B01D00020B7E7D0F8B8325B690E
:103300000BB19847B1E70020AFE7012380F89C326A
:103310000023C0F894324360C0F8A432D0F8B83229
:10332000F3B170B50446D0F8BC221AB15B680BB19A
:1033300000219847402300221146204601F00FFD4E
:103340000126A4F864614025C4F860512B46002290
:103350008021204601F003FDA6842562002070BD77
:103360000320704701740020704790F89C32DBB254
:1033700080F89D32042380F89C320020704790F83A
:103380009C32DBB2042B01D00020704790F89D32B4
:10339000DBB280F89C32F7E7D0F8B82262B108B50A
:1033A00090F89C32DBB2032B01D0002008BDD3691A
:1033B00023B198470020F9E7032070470020F5E784
:1033C000D0F8B82262B108B590F89C32DBB2032B7A
:1033D00001D0002008BD136A23B198470020F9E707
:1033E000032070470020F5E7D0F8B82262B108B595
:1033F00090F89C32DBB2032B01D0002008BD536A49
:1034000023B198470020F9E7032070470020F5E733
:103410000020704708B5012380F89C32D0F8B832FC
:1034200013B15B6801799847002008BD034600206E
:1034300002E00130C0B201331A78002AF9D1704796
:1034400008B54B88012B00D008BDC0F8A43200F0AD
:103450006BFBF9E70B7803704B7843708B78CA7875
:1034600043EA022343800B794A7943EA02238380AB
:103470008B79CA7943EA0223C380704710B50446AA
:10348000802101F07FFC0021204601F07BFC10BD73
:1034900030B583B004460D460023ADF806304A88A7
:1034A000130A013B062B00F2AB80DFE803F0041F98
:1034B00033A9A98D9A00D0F8B4321B680DF106012A
:1034C000007C9847EA88002A00F0A380BDF8063007
:1034D000002B00F099809A4228BF1A46ADF80620CA
:1034E0000146204600F0F4FA03B030BD037C43B936
:1034F000D0F8B8329B6A0DF106009847022343705A
:10350000E0E7D0F8B832DB6A0DF1060098470223F5
:103510004370D7E7D2B2052A52D8DFE802F0031091
:103520001D2A3744D0F8B4325B6823B10DF106018F
:10353000007C9847C6E72946FFF7A0FFD4E7D0F8FC
:10354000B4329B6823B10DF10601007C9847B9E7BE
:103550002946FFF793FFC7E7D0F8B432DB6823B101
:103560000DF10601007C9847ACE72946FFF786FF7E
:10357000BAE7D0F8B4321B6923B10DF10601007C23
:1035800098479FE72946FFF779FFADE7D0F8B432B7
:103590005B6923B10DF10601007C984792E729464B
:1035A000FFF76CFFA0E7D0F8B4329B6923B10DF1AF
:1035B0000601007C984785E72946FFF75FFF93E700
:1035C0002946FFF75BFF8FE7037C33B9D0F8B832A9
:1035D0005B6B0DF10600984774E72946FFF74EFF35
:1035E00082E7037C43B9D0F8B8321B6B0DF10600BB
:1035F00098470723437065E72946FFF73FFF73E7C6
:103600002946FFF73BFF6FE729462046FFF736FFC5
:103610006AE7204600F088FA66E738B504468B88EA
:10362000FBB9CB88EBB94B887F2B1AD803F07F0509
:1036300090F89C32DBB2032B0CD080F89E522946C6
:1036400001F0B0FB204600F06FFA35B1022384F898
:103650009C3209E0FFF712FF06E0012384F89C3258
:1036600002E02046FFF70AFF38BD000070B50446AF
:103670000E468D782E4B1D70012D10D890F89C327F
:10368000DBB2022B0FD0032B23D0FFF7F7FE284B22
:1036900019782046FFF76AFD0325284670BDFFF71D
:1036A000EDFE0325F9E78DB145602946FFF755FD8D
:1036B000054620B131462046FFF7E0FEEDE7204603
:1036C00000F032FA032384F89C32E6E700F02CFA8B
:1036D000E3E7CDB141688D4225D0C9B2FFF746FD81
:1036E000134B197861602046FFF737FD0546B0B1EE
:1036F00031462046FFF7C2FE21792046FFF736FD0E
:10370000022384F89C32C8E7022380F89C3245608B
:103710002946FFF72BFD204600F006FABDE72046BC
:1037200000F002FAB9E700F0FFF90025B5E700BFA5
:10373000B808002008B5CB88012B0BD190F89C323B
:10374000DBB2022B09D9032B09D10122011D00F0A4
:10375000BFF901E0FFF792FE08BD5BB213B9FFF7B6
:103760008DFEF9E70146002341F8083F012200F0F1
:10377000AFF9F1E708B590F89C32013B022B12D863
:10378000CB88022B0CD10123C360D0F8A4320BB13B
:103790000323C360022200F10C0100F099F908BD77
:1037A000FFF76CFEFBE7FFF769FEF8E708B590F856
:1037B0009C32013B022B09D84B88012B00D008BD5D
:1037C0000023C0F8A43200F0AFF9F8E7FFF756FE87
:1037D000F5E738B50C7804F06004202C06D0402CB6
:1037E00004D054B1FFF74AFE002404E0D0F8B83208
:1037F0009B6898470446204638BD4D78092D1DD852
:10380000DFE805F012191C161C08051C0F0BFFF74A
:103810003FFEF0E7FFF701FFEDE7FFF727FF044664
:10382000E9E7FFF787FFE6E7FFF7A4FF2C46E2E7AB
:10383000FFF706FEDFE7FFF7B9FFDCE7FFF71EFE45
:10384000D9E770B505460C460B7803F06003202BD2
:1038500007D0402B05D023B1FFF710FE00263046DD
:1038600070BD95F89C32013B022B18D82379012BAF
:103870000FD8D5F8B8329B682146284698470646A7
:10388000E388002BEBD10028E9D1284600F04CF961
:10389000E5E721462846FFF7F1FD0026DFE7214650
:1038A0002846FFF7EBFD0026D9E7F8B506460D469A
:1038B0008B880C7804F06004202C08D0D9B2402CFE
:1038C00005D06CB12946FFF7D9FD002406E0D6F8F3
:1038D000B8329B6829463046984704462046F8BDD2
:1038E0006F78012F2FD0032F05D0002F59D02946F4
:1038F000FFF7C4FDF2E790F89C32DBB2022B05D053
:10390000032B12D02946FFF7B9FDE7E709B180295B
:1039100004D129463046FFF7B1FDDFE701F032FA66
:103920008021304601F02EFAD8E76B8823B919B10F
:10393000802901D0EB881BB1304600F0F5F8CDE7C7
:1039400001F020FAF8E790F89C32DBB2022B05D0A8
:10395000032B12D02946FFF791FDBFE709B180295B
:1039600004D129463046FFF789FDB7E701F00AFA8E
:103970008021304601F006FAB0E76B88002BADD10C
:1039800011F07F0F0AD1304600F0CEF8D6F8B832E9
:103990009B6829463046984704469FE701F0FAF9AC
:1039A000F1E790F89C22D2B2022A06D0032A29D04D
:1039B0002946FFF763FD3C4690E709B1802913D102
:1039C00013F0800F15D101F07F0101EB8101890017
:1039D00001F5A8713144043100230B600222304606
:1039E00000F076F83C4679E72946FFF747FD3C466C
:1039F00074E701F07F0101EB81018900103131444E
:103A00000431E9E75BB2002B1FDB01F00F0202EB90
:103A1000820200EB8202B2F8642122B3002B27DB82
:103A200001F07F0303EB83039C0004F5A874344486
:103A3000043409B1802924D10023236002222146C5
:103A4000304600F045F83C4648E701F00F0202EB33
:103A5000820200EB8202928C002ADFD12946FFF716
:103A60000DFD3C463AE72946FFF708FD3C4635E7A1
:103A700001F07F0303EB83039C00103434440434CF
:103A8000D7E7304601F036F910B101232360D5E7BE
:103A900000232360D2E7D0B170B50D461646044628
:103AA000FFF7C4FC431C5B009BB233802B700323E5
:103AB0006B70022307E0EA5401345A1CD2B2002191
:103AC000A9540233DBB22278002AF4D170BD7047CA
:103AD00008B513460222C0F894228361C3610A46E6
:103AE000002101F067F9002008BD08B513460A4619
:103AF000002101F05FF9002008BD08B5134603223C
:103B0000C0F89422C0F85831C0F85C310A46002150
:103B100001F058F9002008BD08B513460A460021F7
:103B200001F050F9002008BD08B50422C0F8942225
:103B300000231A46194601F03DF9002008BD08B5DA
:103B40000522C0F8942200231A46194601F03AF9DA
:103B5000002008BD842801D0033070470020704742
:103B600008B500F037FD002008BD2DE9F04387B00F
:103B700004460F464569BDB18669AEB1D0F80480F0
:103B8000D0F80090B0F90800FFF7E4FF0296019525
:103B900000903B4622694946404600F0ABFC059048
:103BA000059807B0BDE8F08365682668D4F81080F2
:103BB000B4F90800FFF7CEFF05AB019300903B4638
:103BC0001FFA88F23146284600F0CFFC0128E7D0E2
:103BD0000020E6E708B500B9012000F045FE00200E
:103BE00008BD00F1080343604FF0FF328260C360FC
:103BF000036100230360704700230361704743683B
:103C00004B609A688A60516099600861036801336B
:103C10000360704730B40D68B5F1FF3F11D000F17B
:103C200008031C465B681A68AA42FAD963684B60AD
:103C300099608C606160086103680133036030BC87
:103C400070470469F2E70369416882688A604168E5
:103C500051605A68824206D0002202611A68013A15
:103C60001A601868704782685A60F5E782B00023CE
:103C700001930D4B1B68B3F1FF3F08D04FF0500389
:103C800083F31188BFF36F8FBFF34F8FFEE74FF0C1
:103C9000500383F31188BFF36F8FBFF34F8F019BE6
:103CA000002BFCD002B070471C01002008480068BF
:103CB000006880F308884FF0000080F3148862B633
:103CC00061B6BFF34F8FBFF36F8F00DF00BF0000FF
:103CD00008ED00E0DFF80C00016841F470010160BC
:103CE0007047000088ED00E04FF0807340F8043C1E
:103CF00021F0010140F8081C054B40F80C3C40F84D
:103D0000202C6FF0020340F8243C4438704700BF79
:103D10006D3C0008000000000000000000000000F2
:103D2000074B19680868B0E8F04F80F30988BFF3C3
:103D30006F8F4FF0000080F311887047AFF3008061
:103D4000E04400204FF0500383F31188BFF36F8FDE
:103D5000BFF34F8F0B4A136801331360012B00D060
:103D600070474FF0E023D3F8043D13F0FF0FF7D076
:103D70004FF0500383F31188BFF36F8FBFF34F8F62
:103D8000FEE700BF1C010020094B1B6843B94FF040
:103D9000500383F31188BFF36F8FBFF34F8FFEE79C
:103DA000013B034A13600BB983F31188704700BFCE
:103DB0001C010020000000000000000000000000C6
:103DC000EFF30980BFF36F8F154B1A681EF0100FC9
:103DD00008BF20ED108A20E9F04F10602DE909009E
:103DE0004FF0500080F31188BFF34F8FBFF36F8FF8
:103DF00000F060FD4FF0000080F3118809BC1968E5
:103E00000868B0E8F04F1EF0100F08BFB0EC108A41
:103E100080F30988BFF36F8F704700BFAFF3008056
:103E2000E044002008B54FF0500383F31188BFF33E
:103E30006F8FBFF34F8F00F00FFC28B14FF0E023DE
:103E40004FF08052C3F8042D002383F3118808BD7E
:103E50004FF0E022002313619361054B1B68054975
:103E6000A1FB03139B09013B5361072313617047B7
:103E700000000020D34D62104FF0E023D3F8002D56
:103E80003D4B9A421CD04FF0E023D3F8002D3B4B22
:103E90009A421ED030B583B0394B1A78D2B2019213
:103EA000FF221A701B78DBB28DF803309DF80330C7
:103EB00003F05003334A1370334B07221A601BE0A0
:103EC0004FF0500383F31188BFF36F8FBFF34F8F11
:103ED000FEE74FF0500383F31188BFF36F8FBFF3FA
:103EE0004F8FFEE7284A1368013B13609DF80330AB
:103EF0005B00DBB28DF803309DF8033013F0800FC8
:103F0000F0D1214B1B68032B08D04FF0500383F3F3
:103F10001188BFF36F8FBFF34F8FFEE71B021A4A62
:103F2000136003F4E0631360019BDBB2144A137067
:103F30004FF0E024D4F8203D43F47003C4F8203D52
:103F4000D4F8203D43F07043C4F8203DFFF780FFD4
:103F500000250E4B1D60FFF7BDFED4F8343F43F043
:103F60004043C4F8343FFFF7A1FE00F0A3FCFFF785
:103F70007DFE284603B030BD71C20F4170C20F41B3
:103F800000E400E0B9080020BC0800201C0100206B
:103F9000124A12F0070F1ED0D11D21F00701C1F502
:103FA000705313440A460E480260002141601344D6
:103FB000083B23F007030B48036059601960991A06
:103FC00051601360084B1960084B1960084B4FF0A3
:103FD00000421A6070474FF47053E4E7C4080020B1
:103FE000D8440020C0080020CC440020C844002051
:103FF000C4440020164B1A461B688342FBD3516809
:1040000002EB010C844509D0416800EB010C6345CB
:1040100009D00360904219D0106070474068014495
:1040200051601046F0E710B40A4C2468A3420BD04C
:104030005B681944416013681B680360904200D0BC
:1040400010605DF8044B70470460F7E7704700BFED
:10405000D8440020C008002070B5054600F0F4FAEE
:10406000364B1B68A3B1364B1B681D424ED135B190
:10407000083515F0070F02D025F007050835002D8B
:1040800046D0304B1B68AB4251D32F4A146804E032
:10409000FFF77EFFE7E722461C466368AB4202D289
:1040A0002368002BF7D1254B1B68A34241D016682B
:1040B00008362368136063685B1B102B10D96019E6
:1040C00010F0070F08D04FF0500383F31188BFF3AF
:1040D0006F8FBFF34F8FFEE743606560FFF78AFF86
:1040E000626818490B689B1A0B60184909688B4273
:1040F00001D216490B60124B1B6813436360002307
:104100002360134A13680133136002E0002600E0C5
:10411000002600F02DFB16F0070F0CD04FF05003D7
:1041200083F31188BFF36F8FBFF34F8FFEE7002635
:10413000EFE70026EDE7304670BD00BFC008002065
:10414000C4440020C8440020D8440020CC440020AF
:10415000D0440020002834D038B50446A0F108052A
:1041600050F8043C174A1268134208D14FF050032C
:1041700083F31188BFF36F8FBFF34F8FFEE750F8C3
:10418000081C41B14FF0500383F31188BFF36F8FC8
:10419000BFF34F8FFEE723EA020340F8043C00F030
:1041A00053FA54F8041C084A13680B441360284659
:1041B000FFF720FF054A13680133136000F0D8FAB7
:1041C00038BD7047C4440020C8440020D4440020B7
:1041D000084B1B681B6823B9074B4FF0FF321A606E
:1041E0007047044B1B68DB68DB685A68024B1A6037
:1041F000704700BFE4440020B84500202DE9F04797
:1042000007469846089DDDF824900A9C266B02F12B
:104210008042013A06EB820626F0070600293AD0D2
:104220008E464FF0000CBCF10F0F0BD81EF80C207F
:1042300004EB0C0383F834201EF80C3013B10CF19E
:10424000010CF0E7002384F84330062D00D9062541
:10425000E56265644FF0000AC4F848A0201DFFF72E
:10426000CBFC04F11800FFF7C7FC2461C5F107057A
:10427000A5616462C4F84CA084F850A04246394657
:104280003046FFF731FD2060B9F1000F01D0C9F8C9
:104290000040BDE8F087002384F83430D5E7000003
:1042A00038B5002407E004EB840293000E4818445C
:1042B000FFF797FC0134062CF5D90C4D2846FFF783
:1042C00090FC0B4C2046FFF78CFC0A48FFF789FC5A
:1042D0000948FFF786FC0948FFF783FC084B1D607F
:1042E000084B1C6038BD00BFEC4400208C4500200A
:1042F000A0450020C4450020F0450020DC450020FA
:10430000E4440020E844002010B50446FFF71AFDFD
:10431000214A136801331360204B1B685BB1204BAB
:104320001B686BB91D4B1B68DA6AE36A9A4207D8AF
:104330001A4B1C6004E0194B1C601368012B28D039
:10434000184A136801331360E06A01238340164A58
:1043500011680B43136000EB8000211D134B03EB2E
:104360008000FFF74CFCFFF70FFD0D4B1B687BB186
:104370000A4B1B68DA6AE36A9A4209D24FF0E023DB
:104380004FF08052C3F8042DBFF34F8FBFF36F8FF0
:1043900010BDFFF785FFD3E778450020E0440020FB
:1043A000D84500208445002088450020EC440020AA
:1043B00010B5044690F8513063B1012B11D0022B97
:1043C0000ED04FF0500383F31188BFF36F8FBFF30C
:1043D0004F8FFEE7006BFFF7BDFE2046FFF7BAFEEA
:1043E00010BDFFF7B7FEFBE70F4B1B68D3B110B54D
:1043F000FFF7A8FC0D4BDB68DC68201DFFF723FCF2
:104400000B4A1368013B1360074A1368013B1360B2
:10441000FFF7BAFC2046FFF7CBFF034B1B68002BCE
:10442000E6D110BD704700BF7C450020F04500205C
:104430007845002008B5FFF7D7FF074B1B68012B15
:10444000F9D94FF0E0234FF08052C3F8042DBFF3A9
:104450004F8FBFF36F8FEEE7EC44002070B504463A
:104460000D461D4B1E681D4B18680430FFF7EBFB13
:1044700050B91A4B1B68DA6A012303FA02F2184991
:104480000B6823EA02030B60B4F1FF3F0DD0344404
:10449000124B1B685C60A64210D9124B18680F4B78
:1044A00019680431FFF7B6FB70BD002DEFD00B4B40
:1044B000196804310C48FFF7A2FBF5E70B4B1868AD
:1044C000064B19680431FFF7A5FB094B1B68A34293
:1044D000EAD9074B1C60E7E704460020E0440020CF
:1044E00088450020E8440020DC450020E44400200A
:1044F000B845002030B587B00B9C7CB10C9DB5B1A0
:1045000054250495049D542D1AD04FF0500383F385
:104510001188BFF36F8FBFF34F8FFEE74FF050034B
:1045200083F31188BFF36F8FBFF34F8FFEE74FF018
:10453000500383F31188BFF36F8FBFF34F8FFEE7F4
:10454000049D0C9D2C63022485F8514000240394A3
:10455000029505AC01940A9C0094FFF74FFE0C985D
:10456000FFF7D2FE059807B030BD2DE9F04385B0C6
:104570000746884614461E469000FFF76DFD00B3BF
:1045800081465420FFF768FD0546B0B1C0F8309071
:10459000E5B1002385F85130039302950D9B0193FB
:1045A0000C9B00933346224641463846FFF726FED1
:1045B0002846FFF7A9FE012005E04846FFF7CAFD9F
:1045C000E6E74FF0FF3005B0BDE8F0834FF0FF3075
:1045D000F9E7000010B588B000240594069407AAF6
:1045E00006A905A8FBF776FF059B0293069B01939E
:1045F00000942346079A0E490E48FFF77BFF0E4BA7
:10460000186090B14FF0500383F31188BFF36F8FA0
:10461000BFF34F8F094B4FF0FF321A60084B012256
:104620001A60084B1C60FFF727FC08B010BD00BFE4
:104630004C50000835440008B4450020B84500201F
:10464000D845002004460020024A13680133136055
:10465000704700BF80450020F8B53A4B1B68002B1F
:1046600069D1394B1D6801351D60C5B9374B1B68D1
:104670001B6843B14FF0500383F31188BFF36F8F72
:10468000BFF34F8FFEE7314A1168314B1868106055
:104690001960304A136801331360FFF799FD2E4B00
:1046A0001B68AB423DD900272C4B1B68DB6A03EB30
:1046B00083039A002A4B9B58012B00D90127294BD1
:1046C0001B68002B3CD001273AE001271F4B1B68D9
:1046D0001B6843B31D4B1B68DB68DC6863689D4245
:1046E00026D3261D3046FFF7AEFAA36A1BB104F1AC
:1046F0001800FFF7A8FAE36A01229A401A490868ED
:1047000002430A6003EB83039A00314614481044C5
:10471000FFF775FAE26A114B1B68DB6A9A42D4D242
:10472000D4E70027D2E70C4B4FF0FF321A60BBE70B
:10473000094A1360B8E70D4A136801331360002774
:104740003846F8BD8045002004460020E44400209F
:10475000E8440020BC450020B8450020E04400208B
:10476000EC4400200846002088450020C045002079
:1047700038B5354B1B6843B94FF0500383F31188AC
:10478000BFF36F8FBFF34F8FFEE7FFF7DBFA2E4BC0
:104790001A68013A1A601B68002B4FD12B4B1B681B
:1047A0000BB900244BE00024294B1B681BB3284B9A
:1047B000DB68DC6804F11800FFF745FA251D284680
:1047C000FFF741FAE06A01238340224A11680B4354
:1047D000136000EB800029461F4B03EB8000FFF7BE
:1047E0000EFAE26A1D4B1B68DB6A9A42DCD31C4B53
:1047F00001221A60D8E70CB1FFF7EAFC194B1C68DC
:1048000084B9174B1C68D4B14FF0E0234FF08052AD
:10481000C3F8042DBFF34F8FBFF36F8F01240EE059
:10482000013C07D0FFF718FF0028F9D00C4B0122FC
:104830001A60F5E70B4B00221A60E2E70024FFF74D
:10484000A3FA204638BD00BF8045002078450020EF
:10485000C445002088450020EC440020E0440020AE
:1048600008460020C045002010B5A8B10446104BF2
:104870001B6843B14FF0500383F31188BFF36F8F70
:10488000BFF34F8FFEE7FFF7DFFE00212046FFF763
:10489000E5FDFFF76DFF48B94FF0E0234FF0805280
:1048A000C3F8042DBFF34F8FBFF36F8F10BD00BF50
:1048B00080450020204B1B681BB1204B01221A6051
:1048C00070471E4B00221A601D4B1B68B3FA83F31E
:1048D000DBB2C3F11F0303EB83018A0019498A5835
:1048E00042B94FF0500383F31188BFF36F8FBFF3CA
:1048F0004F8FFEE7134903EB830082000A445068A0
:104900004068506003EB830C4FEA8C02083211447C
:10491000884209D003EB83039A000A4B13445B6877
:10492000DA68094B1A607047406862469100054A90
:104930000A445060EEE700BF804500200846002092
:1049400088450020EC440020E044002008B5002207
:104950000F491048FEF7CFFB70B90F490D48FEF71D
:10496000E1FB60B90D490B48FEF791FB50B90948CE
:10497000FEF7EFFB48B908BDFBF706FEEDE7FBF7D6
:1049800003FEEFE7FBF700FEF1E7FBF7FDFDF2E7C3
:10499000340100200C4600200C00002020010020E3
:1049A00000207047002070470020704710B5014676
:1049B000044C2046FEF77DFB2046FEF783FB0020DB
:1049C00010BD00BF0C46002010B5064C0022064961
:1049D0002046FEF763FB05492046FEF76AFB0020F0
:1049E00010BD00BF0C460020DC500020DC48002039
:1049F00012230B80004870475001002004230B80D5
:104A00000048704764010020002393421ED200B585
:104A100010E00CF1370C01F813C000014FEA430C11
:104A20000CF1010C4FF0000E01F80CE00133DBB289
:104A3000934209D24FEA107CB0F1204FE9D20CF139
:104A4000300C01F813C0E8E75DF804FB7047000084
:104A500038B50B4BD3F8100AD3F8144AD3F8183AE8
:104A6000C01800D138BD074D0822A91CFFF7CCFFA4
:104A7000042205F112012046FFF7C6FFF2E700BF4E
:104A80000070FF1F6801002008B51A230B80FFF794
:104A9000DFFF014808BD00BF6801002008B50A46D5
:104AA00028B905490548FEF7F6FF034808BD024945
:104AB0000248FEF7F0FFF8E7DC58002054500008E9
:104AC00010B50A46034C21460348FEF7E4FF204692
:104AD00010BD00BFDC5800206C50000808B50A4625
:104AE00028B905490548FEF7D6FF034808BD024925
:104AF0000248FEF7D0FFF8E7DC580020805000089D
:104B000008B50A4628B905490548FEF7C4FF034819
:104B100008BD02490248FEF7BEFFF8E7DC58002056
:104B20008C50000830B589B000230393049305939B
:104B3000069307930368B3F1A04F01D009B030BDCD
:104B400000250195164C236B43F001032363236B6F
:104B500003F001030193019B4FF4C053039302231D
:104B60000493032306930A23079303A90D48FBF735
:104B7000EFFE636B43F0800363630295636C43F461
:104B800080436364636C03F480430293029B2A4670
:104B900005214320FBF796FE4320FBF7CBFECDE734
:104BA000003802400000024008B500F57171D0F8ED
:104BB0000404FEF7E3FA08BD08B5C1EBC10300EB3E
:104BC0008303D3F80822D0F80404FEF703FB08BDE2
:104BD00008B5C1EBC10300EB83039A6CD0F8040461
:104BE000FEF734FB08BD08B5D0F80404FEF7D4FB8B
:104BF00008BD10B50446C3683BB1022B01D10121A9
:104C000004E0FBF7C1FC012100E00021D4F804041A
:104C1000FEF7A8FBD4F80404FEF777FB10BD0000F4
:104C200010B50446D0F80404FEF79FFB2268D2F8C2
:104C3000003E43F00103C2F8003E236A23B1034A59
:104C4000136943F00603136110BD00BF00ED00E0DF
:104C500008B5D0F80404FEF792FB08BD08B5D0F8FB
:104C60000404FEF7C1FB08BD08B5D0F80404FEF744
:104C7000A7FB08BD08B5D0F80404FEF7C9FB08BDC2
:104C800008B5D0F80404FEF7C5FB08BD02780AB1E8
:104C90000020704710B503461548C0F80434C3F827
:104CA000C4024FF0A0430360042343600222C260A9
:104CB000002303618261C36103624362C3620363D1
:104CC000FBF7AFFF80B90A4C80212046FCF7DDFCE2
:104CD000402200212046FCF7B2FC80220121204620
:104CE000FCF7ADFC002010BDFBF74EFCEBE700BF6E
:104CF000DC5A0020D0F8C43211F0800F08D101F046
:104D00007F01C1EBC10103EB810191F8FE01704706
:104D100001F07F01C1EBC10103EB810191F83E007D
:104D2000704708B5D0F8C402FCF7D2FB08BD0000FC
:104D300000487047E45E00207047032805D8DFE88C
:104D400000F005040205012070470320704708B5F4
:104D5000D0F8C402FBF7FCFFFFF7EFFF08BD08B572
:104D600094461A466346D0F8C402FCF704FBFFF7EA
:104D7000E4FF08BD08B5D0F8C402FCF741FBFFF71B
:104D8000DCFF08BD08B5D0F8C402FCF7D9FBFFF77B
:104D9000D4FF08BD08B5D0F8C402FCF715FCFFF736
:104DA000CCFF08BD08B5D0F8C402FCF7D0FAFFF775
:104DB000C4FF08BD08B5D0F8C402FCF792FBFFF7AA
:104DC000BCFF08BD08B5D0F8C402FCF752FBFFF7E2
:104DD000B4FF08BDDFF834D00D480E490E4A002359
:104DE00002E0D458C4500433C4188C42F9D30B4A9F
:104DF0000B4C002301E013600432A242FBD3FBF70B
:104E000005FD00F011F8FBF72FFC704700000220B1
:104E100000000020B4050020B4500008B4050020B4
:104E200008610020FEE7000070B50D4E0D4D761BA9
:104E3000B61006D0002455F8043B01349847A6422A
:104E4000F9D1094E094D761B00F0D4F8B61006D002
:104E5000002455F8043B01349847A642F9D170BDAF
:104E6000A8500008A8500008B0500008A85000083A
:104E7000830730B548D0541E002A3FD0CAB203463B
:104E800001E0013C3AD303F8012B9D07F9D1032C33
:104E90002DD9CDB245EA05250F2C45EA054536D971
:104EA000A4F1100222F00F0C03F1200EE6444FEAA9
:104EB000121C03F1100242E9045542E90255103276
:104EC0007245F8D10CF1010214F00C0F03EB021241
:104ED00004F00F0C13D0ACF1040323F003030433EC
:104EE000134442F8045B9342FBD10CF003042CB151
:104EF000CAB21C4403F8012B9C42FBD130BD64466E
:104F00001346002CF4D1F9E703461446BFE71A46CE
:104F1000A446E0E7024B13B1024800F005B8704721
:104F200000000000354F0008002301461A461846CD
:104F300000F01AB838B5084B084D5B1B9C1007D021
:104F4000043B1D44013C55F804399847002CF9D125
:104F5000BDE8384000F054B8B4500008B050000824
:104F6000704700BF704700BF2DE9F047DFF880A011
:104F70000646DAF8000098460F469146FFF7F0FF24
:104F80001A4B1B68D3F8484124B365681F2D26DCF3
:104F90005EB96B1C0235DAF80000636044F82570D6
:104FA000FFF7E0FF0020BDE8F08704EB8501012357
:104FB000C1F88890D4F88821AB401A43022EC4F877
:104FC0008821C1F80881E4D1D4F88C211343C4F8B6
:104FD0008C31DEE703F5A674C3F84841D5E7DAF86B
:104FE0000000FFF7BFFF4FF0FF30DCE79C500008E8
:104FF000B0050020F8B500BFF8BC08BC9E4670475D
:0C500000F8B500BFF8BC08BC9E46704725
:10500C0028500008550500080000000000000000B2
:10501C008000000000000000000000006465666174
:10502C00756C745461736B0000000000000000008C
:10503C000102030406070809000000000102030432
:10504C0049444C450000000053544D3332205669FE
:10505C00727475616C20436F6D506F727400000038
:10506C0053544D6963726F656C656374726F6E69CE
:10507C006373000043444320436F6E66696700000E
:10508C0043444320496E7465726661636500000099
:04509C008801002067
:0850A00060B1FF7F0100000078
:0850A800154F0008B5010008D6
:0450B0009101000862
:1050B4000024F4000100000010000000CD2F0008BF
:1050C400852F0008912E000800000000952D00088F
:1050D400272E0008FD2D000800000000000000003D
:1050E40000000000D92D0008CD2D0008E52D000892
:1050F400F12D000809024300020100C03209040036
:105104000001020201000524001001052401000130
:105114000424020205240600010705820308001086
:1051240009040100020A0000000705010240000012
:10513400070581024000000009024300020100C08B
:1051440032090400000102020100052400100105D7
:10515400240100010424020205240600010705823B
:105164000308001009040100020A000000070501F9
:105174000200020007058102000200000A06000284
:10518400000000400100000009074300020104C0C0
:105194003209040000010202010005240010010587
:1051A40024010001042402020524060001070582EB
:1051B4000308001009040100020A000000070501A9
:1051C400024000000705810240000000AAAAAAAA22
:1051D400C9490008A1490008A5490008AD490008CB
:1051E400A9490008F1490008FD490008C14A00081E
:1051F4009D4A0008894A0008DD4A0008014B00085E
:10520400120100020202004083044057000201021E
:1052140003010000040309041A0300000000000055
:10522400000000000000000000000000000000007A
:1052340000000000000000000000000074040020D2
:10524400DC040020440500200000000000000000F1
:10525400000000000000000000000000000000004A
:10526400000000000000000000000000000000003A
:10527400000000000000000000000000000000002A
:10528400000000000000000000000000000000001A
:10529400000000000000000000000000000000000A
:1052A40000000000000000000000000000000000FA
:1052B40000000000000000000000000000000000EA
:1052C40000000000000000000000000000000000DA
:1052D40000000000000000000000000000000000CA
:1052E40001000000000000000E33CDAB34126DE667
:1052F400ECDE05000B0000000000000000000000D0
:105304000000000000000000000000000000000099
:105314000000000000000000000000000000000089
:105324000000000000000000000000000000000079
:105334000000000000000000000000000000000069
:0456640004610020BD
:0400000508004DD5CD
:00000001FF
